:020000020000FC
:02000000A2C399
:0200040018954D
:02000800189549
:02001C0007C318
:02002000189531
:0200240018952D
:02002800189529
:02002C00189525
:02003000189521
:0200340018951D
:02003800189519
:02003C00189515
:02004000189511
:0200440018950D
:0200480007C3EC
:02004C00189505
:02005000189501
:02005C001895F5
:10006800EF297E29EF29EF29EF29EF29EF29EF2939
:100078007E29EF299229EF29EF29B629EF29EF29BF
:10008800EF29EF29EF29D329EF29EF29EF29EF29C4
:10009800EF29EF29EF29EA29EF29EF29EF29EF299D
:1000A800524541445922973A984C455499464F52E3
:1000B800B246494C459A5052494E549B4E45585465
:1000C8009C49469D52454144B3524557494E44B414
:1000D800434C4F53459E494E5055549F44415441BB
:1000E800A0474F544FA1474F535542A2524554552C
:1000F800524EA344494DA453544F50A5454E44A6CF
:10010800524553544F5245A752454DA8464E454E69
:100118004484464EA9444546AA4F4EAB4F5554AC6D
:10012800504F4B45BE45584954B5435552534F520D
:10013800B657414954B7534541524348B854554FAF
:100148004EB954554F4646BA455252534554BB458D
:100158005252434C52BC4D4154BD50415553458BAE
:100168005A45528D49444E8E494E568F54524E80B0
:100178005354455081544F835448454E8554414209
:1001880082454C53458643485287415343884552DC
:10019800528956414C8A535452BF52554EB1584514
:1001A80051C4474554C653415645C5415050454E24
:1001B80044C04C495354AF534352B0434C45415249
:1001C800C1434F4E548C434F4EC752454EAD4259D2
:1001D80045C344454CAE5345549249503D934F5006
:1001E8003D9444533D9544423DC245444954904C46
:1001F8004C3D914D4C3DC828CA2ACB2BCC2DCD2F38
:10020800CE414E44CF4F52D03E3DD13C3DD23C3EF4
:10021800D33CD43DD53ED64E4F54D75ED9414253F8
:10022800DA494E54DB4C454EDC43414C4CDD524ED2
:1002380044DE53474EDF504F53E0454F46E1545993
:1002480050E253494EE3535152E446524545E5497D
:100258004E50E65045454BE7434F53E8455850E963
:1002680054414EEA41544EEB4C4F473130EC4C4F21
:1002780047ED790AA30A000E0A0B620BC20D1F0F85
:10028800150DE50B620C7E0C340D8B0DBB0DEF0DBF
:10029800320DBC0FB70F0F0CC20FDA0F2C29F10863
:1002A8002F073E07F309CA100811FB101510E60FB7
:1002B800391067099912010CFA0B2929B510480C55
:1002C8007608E207590821081207FE09FA097A098F
:1002D80063071501141165190CE5160A2F160A850E
:1002E800160CAE1704F01502FC1506BC1506C01551
:1002F80006B91506AF1506B61506AA150F04161287
:100308007725010000156F1915B91915000015009A
:100318000015381815731915EC1915191A15231A1B
:1003280015B32515762615D71915CE1915E81915FB
:10033800C02515FC2515FF26151627159C2715A879
:1003480027001309210949094F0945094709535449
:100358004F502022494E505554204552524F522C4E
:100368002052455459504520220050524550415280
:1003780045205441504520554E4954202020464F91
:1003880052202200524557494E44494E4722524571
:100398004144494E472046524F4D3A202200575279
:1003A8004954494E4720544F3A202200314159338D
:1003B80000811000000000811000000001810D7410
:1003C800207FCD2013F62018902008E72000172062
:1003D8001AFB200A72202020204552524F522049F1
:1003E8004E204C494E452020202020200D0025007D
:1003F800000000804342944800807500000000809F
:100408005000000000801570796300812302585164
:100418000081628318520081031476210211324848
:1004280025000000008180000000007F11111111DB
:100438000081222222220080875000000080278627
:100448003000008057812500008042187500008028
:1004580010000000008112589254008115848932DE
:100468000081199526230081251188640081316255
:100478002777008139810717008150118723008170
:1004880063095734008179432823008114394135A1
:100498000182420098060082767042810182816062
:1004A8005226008241341702018262831853008168
:1004B800FF0053955190008011723354008120340D
:1004C8007112008126509501008123025851008144
:1004D800100000000081FF0099923312007F14235E
:1004E8005177018019999056008033333327018062
:1004F800100000000081FF00224399480080673106
:1005080098420080112199740081000000000000C9
:100518004815746100801253960300814381286254
:1005280000810000000000004487989500808975CC
:100538009790008013463968008122222222008089
:1005480028555555008040000000008066666667A3
:100558000080200000000081FF00500000000081A2
:10056800160943790081300000000081109861234A
:1005780000812000000000816931471800802000B8
:1005880000000081693147180080100000000081D8
:1005980000000000000069314718018051082562F9
:1005A80001803566749401802231435501801053CF
:1005B80060510180202020202020202050726F636D
:1005C8006573736F7220546563686E6F6C6F6779BB
:1005D80020436F72702E22002020202020202045EA
:1005E8007874656E64656420424153494320205203
:1005F80065766973696F6E20412220434F505952C6
:100608004947485420284329203139373720204189
:100618004C4C205249474854532052455345525652
:1006280045442200FF92FFB601501E09FFBEFF900D
:1006380018950E151E05E9F70895602F712F0AE029
:1006480010E00E151E05E9F761507E09C1F70895FF
:100658008F938FB78F93EF93FF938091C00087FF9D
:1006680052C08091C6008F9387FD34C05394809107
:10067800040183708230F9F480910401807CE9EBF5
:10068800FEE2E80FFE1DEE0FFF1F8F91E80FFE1D23
:1006980084918F9387FF0FC08095837061F0829556
:1006A800880F880F4F9340910401842B8093040195
:1006B8004F918F9128C0E5E0F1E080912501E80F86
:1006C800FE1D8F9180838091250183958F71809382
:1006D800250119C08A3F29F481E0809304018F9194
:1006E80012C08D3F39F480910401839580930401F1
:1006F8008F9109C05A9432F4552480910401837073
:10070800809304018F91FF91EF918F918FBF8F910B
:100718001895FF91EF91EE0FFF1FC89531960020B5
:1007280039F04091C00045FFFECF0092C600F5CFDA
:10073800E0FD3196E695F795EF93FF930895EE2443
:1007480083E080930E038EBF8AE080930D038DBFF4
:10075800E0922501E0922601E8E7F3E0E093480300
:10076800F0934903EFE7F6E0E0934C03F0934D0371
:1007780080911A008093C601E092C7018EE08093B1
:10078800E8010E949B220E9479228CE38093E70172
:100798008FEF80936B018827809333038093E9015F
:1007A80080933103809332038DE080932A03AEE473
:1007B800B3E0E4E2F4E054E0C89531960D925A951E
:1007C800D9F7EC920E94132BA8950E94C62ACE2C2A
:1007D800DE2CAE2CBE2CC1E1D3E0EEEDF3E0C895E3
:1007E800002019F031960992FACF0E94232A0E941C
:1007F800F01F0E94F01FECEBF5E00E942E250E94EE
:10080800F01FE0EEF5E00E942E250E94F01FE2E0C6
:10081800F6E00E942E250E94F01F0E94F01F0E9401
:10082800F01F0E94F01F17D35B9A0E94EB1FE8EAA3
:10083800F0E00E942E25E0910D03F0910E03EDBF2C
:10084800FEBF81E080932B03E0E0F0E0E0934203F9
:10085800F0934303E0934403F0934503E3E4F1E0AA
:10086800A4E1B0E08081882B9AF079F0EF93FF93B0
:10087800AF93BF93B083C5E0D0E0EC0FFD1F0E949B
:100888002B29BF91AF91FF91EF91EA0FFB1FEACFA0
:1008980088278F939FB79F930E94EB1F0E949120F8
:1008A8004DD048F017D29F919FBF8F9108948F9396
:1008B8009FB79F93F1CF9F919FBF8F9138F4EAE044
:1008C800F3E0E0930D03F0930E03D4D201D0B3CF3D
:1008D800E9E0F2E0E0933403F093350380818D3052
:1008E8008F939FB79F9311F40E94F01F9F919FBF12
:1008F8008F9109F40895885910F40C949621873241
:1009080028F0803308F4D5C10C94962180912A03ED
:1009180088948F939FB79F93BCD10E9451248D30A8
:1009280039F0EAE2F3E04081841711F00C94962143
:100938009F919FBF8F9180932A030895EDE2F2E083
:100948007FD1E0933403F09335038FEF80932D0329
:100958000E94421CE0930702F09308028F939FB70E
:100968009F93E0913403F0913503A3E0C9E0D2E00E
:1009780080912D03839580932D0362D18E3209F4E3
:100988004CC0CF93DF93CEEAD0E0EF93FF936E2E67
:100998007F2EEC2FFD2FC895802DE62DF72D809307
:1009A800280321964DD13196B82F6E2E7F2EEC2F2D
:1009B800FD2FC895802DE62DF72D8B1791F3882BE9
:1009C8000AF43CC08B2F8E3239F480912803873C7F
:1009D80008F433C0883D88F521966E2E7F2EEC2FC3
:1009E800FD2FC895802DE62DF72D882BAAF7FF91AE
:1009F800EF918D3E51F6DF91CF9122D18D3009F4E0
:100A080076C08F939FB79F9380912D03882B11F405
:100A180088E924D19F919FBF8F9120D1319682324E
:100A280009F0A6CFB82F80818D3009F460C016D1A7
:100A380031968B1709F49CCFF6CF31969F918F9101
:100A4800DF91CF918091280309D13197BDE0873993
:100A580021F48FEF80932D038BCF873A21F39F9159
:100A68009FBF8F918F939FB79F938091280310F416
:100A7800813BC9F2843C18F0873C08F4D4CF803A13
:100A880081F0813A71F08A3B61F08E3B51F0863AF1
:100A980041F0833819F0823809F06ACF8FEF8093DC
:100AA8002D03CED03197CF93DF93AF93BF93319679
:100AB800E0933403F09335030E94421CBF91AF9139
:100AC800DF91CF9128F4E0913403F091350350CFB2
:100AD80086E9C4D08E2FC2D08F2FC0D0E0913403C6
:100AE800F0913503ADD08C3209F042CFDCCF8DE0E8
:100AF800B5D0E6E0F2E0A0839F919FBF8F91089563
:100B080080E280932E038827809330038093280106
:100B1800A0E0319680813196EF93FF93AF93BF9316
:100B2800CF93DF93F081E82F80912E030E94761CEB
:100B3800FF91EF91CF93DF930E942B160E94FB1B2E
:100B4800DF91CF91BF91AF91EA0FFB1FAE2FFF91BD
:100B5800EF91882780932E038091280183958093B5
:100B6800280131968081882B22F078D08D30C9F702
:100B78000895863909F1EF93FF93EEEAF0E0C895FE
:100B880031968015E1F7893909F431D08B3909F4A8
:100B980027D0843840F08E3C31F08F3C21F08839E2
:100BA80020F08F3B10F480E205C0C895802D319667
:100BB800882B5AF153D0F9CF80912801823008F45C
:100BC800A8CFEF93FF9331973197319786E940810A
:100BD8008417FF91EF9109F09CCF8CE23FD099CF19
:100BE80088278093300380912F03825006C080911C
:100BF8002F0342E0840F8093300308F488278B3159
:100C080008F0089580932F030895FF91EF91808154
:100C18008E3C91F08F3C81F0863D71F0843860F015
:100C2800883908F49ECF8F3B08F09BCF873A09F4A8
:100C380098CF843809F495CF80E210D092CF3196BE
:100C480080818D3009F408958132C8F3813608F423
:100C580008958B3708F008958F7D08958F939FB777
:100C68009F9388E48A1710F40C946E219F919FBF7C
:100C78008F9188832196A39508950E94B61F09F045
:100C88000E94F81F0E944D060E94EF22B0F70C94B4
:100C9800BB0D882780932903E0913403F091350335
:100CA8008081885910F40C949621873210F00C94A6
:100CB80096213196E0933403F0933503880FEAE7E1
:100CC800F2E0E80FFE1DC895402D3196C895F02D2D
:100CD800E42F0994E0910702F09108020E942B1674
:100CE800E0914803F0914903A0E0B0E08081A82F8B
:100CF8008A9559F031960E9429229FB731979FBF54
:100D0800B1F0A8F0EA0FFB1FF1CF80910602843002
:100D180009F4089574D0E0914A03F0914B034BD045
:100D280041E04083E0934A03F0934B030895B08178
:100D3800E0933803F09339038091060238F0845029
:100D480011F044E0840F8A1B69F1D0F0B82F80912C
:100D58000602843009F408958B2F51D0E0913803AE
:100D6800F09139033FD0E0914A03F0914B030E9480
:100D78002B16E0934A03F0934B0311962FD012C021
:100D88008095839539D02ED00E942B16E091380398
:100D9800F091390309F019D041E04083E0934A0308
:100DA800F0934B03E0913803F091390380910602E8
:100DB800843009F40895C6E0D2E08881A82FB0E015
:100DC800888180832196319611978B2F8A2BC1F7C2
:100DD8000895888180833197219711978B2F8A2BCB
:100DE800C1F7089580914A038E1BA82F80914B0369
:100DF8008F0BB82F8A2B0895E80FFE1D0895E091F8
:100E08004A03F0914B03F8DF0E942B16EDE4F3E060
:100E18000E942C2208F00C94332408950E94C424C4
:100E28000E94F01FE0913A03F0913B030E942B16B9
:100E3800E0913C03F0913D038881813009F40895E5
:100E4800D1DF0E942B16C1DF41E04083E0934A03C3
:100E5800F0934B030FC0E0914803F091490341E040
:100E68004083E0934A03F0934B033197E0933403B4
:100E7800F0933503E0914C03F0914D0340E040833B
:100E88003197E0930B03F0930C03E0914A03F09140
:100E98004B033196E093BA01F093BB01E0E0F0E038
:100EA800E0932B01F0932C01882780932C030E9458
:100EB8009B220E947922E4E3F0E00C940B24EAE000
:100EC800F0E0E0934203F0934303E0934403F0938C
:100ED80045030E94421CA8F0E0934203F0934303A9
:100EE8000E94642471F40E94421C08F40C9471213D
:100EF8008F2F8E2B09F40C947A21E0934403F093FE
:100F080045030E9451248D3011F00C947121CFEFCC
:100F1800DFEF0E947F24E0914803F091490380812C
:100F2800813049F1319631963196E0933403F0934C
:100F380035030E9457248D3091F30E94641CC8F336
:100F48000E942B160E947F24E0E0F0E028F021F4B4
:100F5800E0914603F09147030E942B16E091340379
:100F6800F0913503319731970E94AB22E093340317
:100F7800F0933503E2CFE0914403F0914503BF2F8E
:100F8800AE2FE0914203F09143030E942B16E091AB
:100F98004803F09149038081813009F40895EF9363
:100FA800FF9331960E94AB22FF91EF9125DF0E94BB
:100FB8002B16EA0FFB1F0E942B16EDCF0E94C424AC
:100FC8000E94F01F0E94F01F882780932F03E09152
:100FD8003A03F0913B038081813009F40895CDE212
:100FE800D2E08EDD3196EF93FF93E2E3F2E042E246
:100FF8004083EDE2F2E00E9422253196BEEF809117
:101008003003882B09F4B82F80912F038B0F46E00B
:10101800840FC82F0E94140F0E9420250E940D20C3
:101028000E94F01FDF91CF91ECE3F3E00E942922A8
:101038000E942B1609F40895CECF0E94C4240E9462
:10104800F01FE0914803F09149038081813011F449
:101058000C946B210E944221E0913A03F0913B03EA
:10106800CDE2D2E04DDDAA952197E3E4F8E0EF93D5
:10107800FF93EDE2F2E0EF93FF930C9415218F9329
:101088009FB79F935BDC10F40C94862123DE9F911D
:101098009FBF8F918A3011F40C94F01FBAE00E9420
:1010A800DC1FBDE00E94DC1FE5CE80912C03882B5D
:1010B800A3E4BEE411F40C9498210E94F01F882741
:1010C80080932B03FF91EF91FF91EF91E09334030D
:1010D800F0933503FF91EF91DF91CF91BF91AF91DD
:1010E80088E10895E0913403F0913503EF93FF937D
:1010F8000E94C424FF91EF9180818D308F939FB718
:101108009F9309F4B7DEE0914803F0914903808189
:10111800813011F40C946B213197E0933403F093F0
:101128003503E0933603F09337034DE04083882777
:1011380080932B0380932C03E0E0F0E0E093E4013C
:10114800F093E501E093E501F093E6019F919FBFDD
:101158008F9109F031C00E949B220E947922E0E021
:10116800F0E0E0932B01F0932C01A8EAB9EA882774
:101178000E94412308F1883A11F40C947721B4E8CD
:101188000E9443240E943C230E94751BA4E4B4E4FB
:1011980010F00C949821EF93FF93E2E0F0E00E94A6
:1011A8000B240E9440240E942B16FF91EF910E946D
:1011B800AB220E945523D9CFE0913A03F0913B032B
:1011C800319631963196E0933403F09335030E94BB
:1011D800F01F8DE080932A0350CD0E9457248F93EF
:1011E8009FB79F930E940C1C9F919FBF8F91CF9395
:1011F800DF93863910F00C949621805910F40C94E2
:101208009621880FEAE4F3E0F7DD0E943F226E2E74
:101218007F2EFF91EF916F927F928E2F08958F2FDF
:10122800882B11F00C94962188E48E1710F40C94F6
:101238007A218E2F8093E701089580912B03882BC4
:1012480011F40C9496210E942B16E0914803F0911A
:101258004903A9E4B0E0EA0FFB1F0E942B160E9485
:10126800262210F40C947A21C0E0D0E021960E9446
:10127800262210F00C947A21E0934C03F0934D034E
:10128800F9CDB8E00EC0B7E00CC0E091E201F091F2
:10129800E30180830895E091E001F091E10180830A
:1012A80008958F939FB79F93AF93BF93BBE10E941D
:1012B8005021BF91AF910E9450219F919FBF8F9164
:1012C800B82F0C9450210E940C1C8D2F882B11F0E4
:1012D8000C947A218C2B11F40C947A218093300190
:1012E800833008F40C9491120C947A210E94F9111D
:1012F800E0914803F09149038081813011F40C9406
:101308006B21E3E4F1E0E0936C01F0936D0183E479
:10131800809339010E9451248D3091F08C3211F064
:101328000C9496210E9457240E945724843521F05A
:10133800833411F00C94962180933901843529F176
:101348000E9451248D3011F00C949621E0914803AD
:10135800F0914903E0933C01F0933D010E942B1664
:10136800E0914A03F0914B030E94FB1B3196E093F6
:101378003A01F0933B010E949112E3E3F1E00E94ED
:101388002B2910F40C946521F4C30E9451248D304C
:1013980011F00C94962180932F0182E00E9417137C
:1013A8000E94EF11E0914803F0914903C9E0D2E0AF
:1013B8000E9484053196EF93FF93CA2FD0E02197BE
:1013C800E9E0F2E0A1E0B0E00E949B12FF91EF910A
:1013D8008081813059F78827809329017EC08FEF5B
:1013E80080932901882780932A010AC08FEF809370
:1013F8002A0103C0882780932A018827809329011E
:101408000E94F911E3E4F1E0E0936C01F0936D01BF
:101418000E9451248D3083E441F00E9457248C327D
:1014280011F00C9496210E945724833419F18435C5
:1014380011F00C9496211EDD80912A01882B09F465
:101448000ADD81E080932F010E9417130E94EF119B
:10145800E0913403F0913503EF93FF93CDE2D2E0AE
:101468000E94D112A1F10E94A20410F40C948621CA
:1014780031DCF4CF80912A01882B11F00C94622181
:10148800EADC0E949112E0914803F09149030E941E
:101498002B16E3E3F1E00E942B2910F40C94682149
:1014A800CFEFDFEF0E947F240E942B16E0914C03C0
:1014B800F0914D030E94262210F40C9433240E94CC
:1014C8002B16E0934A03F0934B03D4DC08C0FF913A
:1014D800EF91E0933403F09335030E940813809151
:1014E8002901882B09F0FECD44C30E944D1AEF93C1
:1014F800FF938F939FB79F93E0913403F091350347
:101508008081843D11F00C9496213196E093340348
:10151800F09335039F919FBF8F9131F4FF91EF9125
:1015280080E00E946B1506C00E945A13DF91CF918C
:101538000E94D5230E94642409F00895D6CF0E9402
:10154800F21B0E944D1A11F40C947D21EF93FF9326
:10155800B4ED0E9443240E945A13DF91CF91CF9398
:10156800DF930E94D523B1E80E9443240E945A13B6
:1015780080E80E94652428F4EFEBF3E00E94B5238D
:1015880002C00E945A13CBEFDFEF0E94E2230E94B1
:101598002B160E94EF2208F4EDC40E942B16D0836C
:1015A8003197C083BF91AF91EF93FF933197B08389
:1015B8003197A083AF93BF93319741E04083A9E06F
:1015C800B0E0EA0FFB1FEF93FF930E942B163197B1
:1015D800319731973197E0933403F0933503882797
:1015E800B82FB395AF93BF93ABE9B9E90E944123F4
:1015F800A3E5B3E410F40C948921893991F3BF91E0
:10160800AF91BA9579F70E9417232CC00E94F21B5C
:10161800E0910B03F0910C03319680818A9509F0D3
:10162800A9C43196EF93FF930E9417230E942B16AB
:10163800FF91EF9120F00E94292209F09BC4A0811C
:101648003196B0813196EF93FF93AF93BF93C6E085
:10165800D0E0EC0FFD1FEF93FF933196DB2FCA2FDD
:101668000E942F16FF91EF918081C7E0D0E0EC0F28
:10167800FD1FDF91CF91882B11F00E942B160E943D
:10168800C415FF91EF9170F43197D0813197C081E3
:10169800AFE1B4E0EA0FFB1FE0930B03F0930C03F8
:1016A8000C94A223C0813196D0810E942B16E0931E
:1016B8003403F0933503FF91EF91DFCA0E94522261
:1016C800A9F00E945A130E94D123B3E80E94432430
:1016D800B1E08091AB01882B09F455C082E8809372
:1016E8002A030E94641C08F071C0D6CAE0910B035B
:1016F800F0910C03EF93FF93E0933E03F0933F03C5
:101708000E94B914EF93FF930E945724863D10F06E
:101718000C949621803D10F40C949621EDE6F1E0AE
:10172800885C0E941C1431960E94342231963196AE
:101738003196DF91CF91EF93FF93CF93DF93E091B1
:101748000B03F0910C03E0934003F09341030E94D4
:10175800B9140E942B16BF91AF910E943B25EFEB65
:10176800FBE03F01FF91EF916F927F92EF93FF9320
:10177800ABEAB1E00895FF91EF91E0930B03F0938A
:101788000C03A3CFB395E0913403F0913503808126
:10179800863941F4319631963196E0933403F093CB
:1017A8003503F5CF8D3009F408953196E09334036D
:1017B800F09335038C3931F3823849F7BA9539F704
:1017C8008DCF0E94641C10F40C9496210E94F21B89
:1017D8000E942B160E94BE24319631963196E093D2
:1017E8003403F0933503FF91EF9147CAE0E0F0E04E
:1017F800E0932B01F0932C0108950E94641C10F4CF
:101808000C9496210E942B160E94BE24E0932B0173
:10181800F0932C0108950E940C1C0E9457248F936A
:101828009FB79F93CF93DF930E94641C10F40C948E
:101838009621BF91AF91AA9569F0AF93BF930E948B
:1018480051248D3011F0873979F7BF91AF91BF914D
:10185800AF91EAC00E942B160E94F21BE5D09F911F
:101868009FBF8F91803A09F4B5CF813A81F18A3BC5
:1018780009F4CACF863A09F4B6C18E3B11F00C942C
:101888009621CF93DF9306C00E94F21B0E94641C2E
:10189800EF93FF93E0910B03F0910C033196808155
:1018A800813049F4C0E1D0E0EC0FFD1FE0930B0359
:1018B800F0930C03F3CFDF91CF918CCF0E94F21BF2
:1018C8000E94641C10F40C9496210E942B160E940E
:1018D800EF22BF2FAE2FCF93DF93CDEFDFEF0E9424
:1018E800E223DF91CF91B0833197A083319742E013
:1018F800408370CF0E94F21BE0910B03F0910C0320
:1019080031968081803009F435C3823039F08530D2
:1019180091F0C1E1D0E0EC0FFD1FF3CF3196C0810B
:101928003196D081E0930B03F0930C0388818A955C
:1019380009F0BBCE1CC131968081B82F4BEE840FC5
:10194800C82F89E24FEF841FD82F0E942B16EDBFB6
:10195800FEBF2196888180833196B395D1F70E9486
:101968002B16E0930B03F0930C03319680818F378D
:1019780001F1EF93FF930E94B914DF91CF91CF93B8
:10198800DF93EF93FF930E94EF2225D0BF91AF9191
:10199800E0910B03F0910C03DF91CF912197AF9366
:1019A800BF931CDAE0930B03F0930C03DF91CF9104
:1019B80008953197EF93FF933196EF93FF930E9429
:1019C8005A130E94EF22DF91CF9105D0FF91EF913A
:1019D8000E94C32308950E942B163196C081319628
:1019E800D0810E942B16E0933403F09335030E94B4
:1019F8002B16319680818430E0930B03F0930C030F
:101A080009F408953196C0813196D081E0930B0393
:101A1800F0930C030E94D523E0910B03F0910C0383
:101A2800E8CF0E94F21B8827BDE0873A09F0B7E9A2
:101A3800E0913403F09135038081863921F43196A1
:101A480031963196F9CF8D3021F08B173196A1F769
:101A58003197E0933403F0933503089587EAE4CF90
:101A68000E943023A8F00E94751B10F00C9474217A
:101A78000E9440240E940C1C11F40C9474210E94B2
:101A880042240E94A2220E94642408F40895E8CF08
:101A98008A2F8062A82F0E94751B10F00C94742165
:101AA8000E944024E2E0F0E00E940B24EF93FF93B1
:101AB8000E940C1CCF93DF93CF93DF93E2E0F0E01A
:101AC8000E940B24DF91CF918D2F8C2B11F40C9455
:101AD80074210E94AB220E94642480F00E940C1C96
:101AE800BF91AF91CF93DF930E944F193F01FF91B0
:101AF800EF916F927F92EF93FF93E0CF0E94422481
:101B0800DF91CF91FF91EF910E94BD22BCCF0E943F
:101B1800F21BE8E4F6E03F01FF91EF916F927F92AC
:101B2800AF93BF93CF93DF93EF93FF9381E08093BD
:101B38002C0380932B03E0913403F0913503EF934A
:101B4800FF93E0E0F0E00E941E16E0930D03F0938F
:101B58000E030E94EB1FEBEAF1E00E942225EAE166
:101B6800F3E0E0930902F0930A020C94C2210E9468
:101B7800F21B882780932C030C9419040E9451248B
:101B8800833209F44EC30E94F2230E94642420F495
:101B9800AFE9BFE90E9441230E94F22310F40C949C
:101BA80068210E944D1A0E94F22361F0EF93FF937F
:101BB8000E94B01B10F40C946821DF91CF910E9411
:101BC800D52303C082E20E946B150E94F2230E9473
:101BD8006424C8F608950E94641C0E942B16E091A4
:101BE8004803F091490310F00E94BE243197E09316
:101BF8003603F093370308950E948A220E945124E5
:101C0800833211F40C9455118F939FB79F93809151
:101C18002B03882B11F00E94F01F9F919FBF8F917B
:101C28008D3011F40C94F01F873911F40C94F01FC7
:101C3800EAE2F3E04081841711F40C94F01F0E944B
:101C480051248D3009F40895873909F408958C32A8
:101C580041F18B3331F1EAE2F3E04081841709F472
:101C68000895853809F4CDC0853209F449C00E9429
:101C7800522219F11BD50E94D123E0910B03F09158
:101C88000C030E94E11C8091E9018B0FB82F809111
:101C9800E7018B1710F40E94F01F0E9422250E9472
:101CA8000D208BE30E94652409F4C9CF8CE20E94C1
:101CB800652409F497C00C94F01FE0910B03F09190
:101CC8000C03EF93FF930E94B914DF91CF91BFD714
:101CD800E0930B03F0930C038D2F8C2B11F3809161
:101CE800E701B82F8091E9018B1710F00E94F01FCF
:101CF800B0810E94C81F0E940D2031972197ECCF18
:101D08000E949B220E9457240E94421CD8F48434CB
:101D1800B1F0E4ECF1E0B0E88A3569F0B0E483347E
:101D280051F0B0E28B3C39F0B1E0843221F0B2E0FE
:101D3800833209F04AC080818B2B8083E3CF0E94D5
:101D48008A22E0CF8F2F882B11F00C9480218E2FC0
:101D5800882B11F40C9480218B3110F00C94802185
:101D68008093C6010E945724893469F1853421F093
:101D7800863411F00C9480218F939FB79F930E9413
:101D8800421C10F40C9480218F2F882B11F00C9496
:101D980080218E2FE6ECF1E04081841710F00C943E
:101DA80080218093C7019F919FBF8F91853459F4FB
:101DB8008091C701B82F8091C6018B1B863010F423
:101DC8000C94802185E48093C501E4ECF1E0B081B6
:101DD80080818D7F80838B2F827011F00E94792201
:101DE8000C94550E8091E801C0E0B82F8091E9016C
:101DF800D82F8C2F8B0FC82F8D2F8B1BC8F710D087
:101E08001ECF0E9457240E9440240E940C1C0E944E
:101E180042248D2F882B11F00C947A2101D041CFC8
:101E28008091E9018C1708F00895B0E20E94DC1F48
:101E38000E940D20F5CFE0913403F0913503EF9324
:101E4800FF930E9464248F939FB79F9388EC0E940E
:101E5800652408F06CD082E20E94652408F055C021
:101E6800BFE30E94DC1F0E9491209F919FBF8F912A
:101E78008F939FB79F9311F00E94F01FCDE2D2E09D
:101E8800CF93DF930E944D1AB1F0DF91CF918881F3
:101E9800803211F42196FBCF0E94B81E28F10E94CF
:101EA8006424B0F08B2F8C3259F38D30E9F4BFE302
:101EB8000E94DC1FD5CF0E94CD228DE00E946B15B9
:101EC800FF91EF91E0933403F0933503BDE0E7CF42
:101ED8008B2F8D30DF91CF91FF91EF9109F4089509
:101EE800EF93FF93CF93DF939F919FBF8F9111F053
:101EF8000E94F01FEEEAF1E00E942225FF91EF9187
:101F0800E0933403F093350396CFB0818B2F31964D
:101F1800823219F00E94C81FF8CFE0933403F0937F
:101F280035030E940D20BCE20E9443249CCF0E94EE
:101F3800F21B0E940C1C8D2F882B11F00C947A2117
:101F48008C2F893410F00C947A218093E601BCE23E
:101F58000E9443240E940C1C7AD6E093E401F0937B
:101F6800E5010C9442240E94EC1B0E94552359CD94
:101F78000E94EC1BA3E5B3E40C9498210E940C1C6E
:101F880083ED06D00E9464240E940C1C0C94EB0183
:101F9800EBEEF1E080838D2F882B11F00C947A21E1
:101FA8003196C083319649EC408308950E940C1CF9
:101FB800CF93DF930E9464240E940C1CFF91EF9141
:101FC800C08308950E94F21B0E940C1C8BEDE0DF79
:101FD800BCE20E9443240E940C1C8D2F882B11F018
:101FE8000C947A21CF93DF93BCE20E9443240E9491
:101FF8000C1C8D2F882B11F00C947A21CF93DF9332
:102008000E94EB01BF91AF91DF91CF918C238A178A
:1020180009F40895CF93DF93AF93BF930E94F41F01
:10202800EFCF0E94642470F40E9451248D3079F01F
:10203800873969F00E940C1C8C2F80932E010E9416
:10204800642428F00E940C1C8C2F80932D01809111
:102058002D018F738093E901B1E00E9455098091A9
:102068002E01B2E00E9455090895E0910B03F0910A
:102078000C03E0933E03F0933F0377D4EF93FF9371
:10208800BCE20E944324E0910B03F0910C03E0931F
:102098004003F093410369D4EF93FF93BCE20E949D
:1020A80043240E944D1A11F40C947D21E093B00151
:1020B800F093B1010DD6E0913E03F0913F03E09318
:1020C8000B03F0930C03FF91EF91DF91CF910E94E6
:1020D800FB1B3196E093AC01F093AD01E0E0F0E03A
:1020E800E093AE01F093AF01BD2FAC2F08F4089533
:1020F800AF93BF93CF93DF930E943B25DF91CF919E
:10210800BF91AF9101F1E091AC01F091AD01319730
:10211800E093AC01F093AD018F2F8E2B09F4089555
:10212800E091AE01F091AF013196E093AE01F093EA
:10213800AF01E0914003F09141033197E0934003F0
:10214800F0934103D5CFE091AE01F091AF01319604
:102158000E94FE1BE091B001F091B1010E94D323CF
:1021680008950E94F21B0E940C1C8D2F8C2B09F4E1
:102178000895E2E2F3E031970E94F41F8F2F8E2B2F
:10218800D1F721978D2F8C2BA1F708950E94F21B70
:10219800E0D009F439D210F40C947721BBE30E9403
:1021A800432423D1BCE20E9443240E940C1C8D2F9F
:1021B800882B11F00C947A2184E5809339018C2FB7
:1021C80032D20E94642408F406C10E944D1A11F408
:1021D8000C947D21EF93FF9380913101E82FF0E07B
:1021E8000E94FE1BDF91CF910E94D523F4C00E946C
:1021F800F21BAFD011F00C94772106D2ECD00E94DC
:10220800642408F40895F3CF0E94F21BA2D011F0C1
:102218000C94772155D1DFD00E94642408F40895E6
:10222800F3CF0E94F21B95D011F00C947721BBE3F9
:102238000E944324C9E0D2E0B0D159F10E944D1A5E
:10224800EF93FF93E0913403F09135033F01FF9141
:10225800EF916F927F92EF93FF93E9E0F2E0E093C2
:102268003403F0933503B9F00E94B01BDF91CF918E
:1022780010F00E94D523FF91EF91E0933403F0937F
:10228800350310F40C947D210E94642498F6A3D0A1
:10229800E5CBA1D0C8CB8DE0FF91EF9118D488276A
:1022A800EACF0E94F21B55D011F00C947721BBE3C2
:1022B8000E944324E091C401F091C501E093C0015C
:1022C800F093C101E091C601F091C701E093C2010A
:1022D800F093C3010E949B220E94522249F1E6D149
:1022E8000E94D123E0910B03F0910C030E94E11CA2
:1022F800CB2FD0E08081803219F431962197FACF24
:10230800A1E0B0E014D10E94642430F764D0E091D9
:10231800C001F091C101E093C401F093C501E091BF
:10232800C201F091C301E093C601F093C70108957B
:10233800E0910B03F0910C03EF93FF9316D3DF9119
:10234800CF9185D4E0930B03F0930C03AFEFBFEF6D
:10235800D9CFB3E20E9443240E940C1C8D2F882BF6
:1023680011F00C947A218C2B11F40C947A2112F42C
:102378000C947A2180932F01EBE6F1E0E0936C0155
:10238800F0936D01E3E4F1E0A4E1B0E080818C1703
:10239800D1F08F3F49F0882B21F4E0936C01F09342
:1023A8006D01EA0FFB1FF2CFE0916C01F0916D0116
:1023B8008081882B089409F008958A9541E09FB799
:1023C80094279FBF0895E0936C01F0936D01CFE2CD
:1023D800D1E00C941C22A4E1E0916C01F0916D0114
:1023E80036D4EFE2F1E00C941C2281E080933001B6
:1023F80080912B03882B09F03EC0E0910B03F091EC
:102408000C03EF93FF93B1D2DF91CF9120D4E093E7
:102418000B03F0930C038D2F882B11F00C9496214D
:102428008C2B11F40C949621D6E0A3E3B1E08081C3
:1024380031978F3299F0DA9511F40C9496218C9398
:102448001196CA95A1F78D2F863011F40C94962118
:1024580088278C931196DA95E1F708958081815346
:1024680010F40C949621823010F00C9496218395E8
:1024780080933001E8CFE0913403F0913503D6E042
:10248800A3E3B1E00E94240631963196E093340329
:10249800F093350331978F3209F33197E093340382
:1024A800F093350331968C3209F4CDCF8D3009F491
:1024B800CACFDA9511F40C9496218C931196E2CF39
:1024C80080913001E3E3F1E00E942B2910F40C9491
:1024D8005F210E94EB1F21D0E9EBF1E080913001F0
:1024E80040E3840F8093CB010E942225E6ECF1E0C3
:1024F8000E9422250E9449200E94F01F16D0809138
:102508003001E3E3F1E00E942B2910F40C945C21E4
:10251800E2E3F1E044E04083089580913001B82F70
:1025280083E08B1B8695869508958827089580916A
:102538003101827011F40C94592183E080933201A7
:102548008D2F8C2BD9F02197CF93DF93AF93BF9327
:102558008081EA0FFB1FB82FEF93FF938091300122
:10256800E3E3F1E00E942B2910F40C946521FF911C
:10257800EF91BF91AF91DF91CF91E2CFEF93FF93AE
:10258800BDE080913001E3E3F1E00E942B2910F4D3
:102598000C946521FF91EF9108958091310181702C
:1025A80011F40C945921E2E3F1E08081833011F4B5
:1025B8000C945921863011F40C94592142E040833F
:1025C8008827A82FAF93BF93CF93DF93E3E3F1E07E
:1025D800809130010E942B29DF91CF91BF91AF915B
:1025E80030F00E9432068D3069F7882B089512F07A
:1025F8000C9468218A2F882B11F00C946821E2E34F
:10260800F1E046E040830895EFE2F1E040E04083E6
:10261800E2DE80913001E3E3F1E00E942B2910F41F
:102628000C945F2108958F939FB79F930E94EB1F8F
:1026380074DF8091300140E3840F8093CB01E9EB94
:10264800F1E00E9422259F919FBF8F91843010F066
:102658000C945921882B11F40C9459218093310141
:102668008A95EBECF1E011F0E3EDF1E00E94222510
:10267800E3E3F1E0A0E00E9423250E9449200E94A4
:10268800F01F53DFE0E0F1E0E0933A01F0933B0103
:1026980080913001E3E3F1E00E942B2910F40C94BF
:1026A8005C21E2E3F1E041E040830895EAE0F3E0F1
:1026B800EF93FF93E2E8FDEFBDD2A3E5B9E410F094
:1026C8000C94982188278093280304C080912803BC
:1026D800882B19F50E94172318F00E94C3231DC0E8
:1026E8000E94B01BD0F48827ACD0B8F4E091340332
:1026F800F091350380818B3D09F417C68C3D09F4B0
:10270800FFC5873809F419C6893811F40C94F619ED
:10271800883CEAEDF2E009F481C0E0913403F091DD
:1027280035038081883C28F0883D60F08D3E08F4B0
:1027380065C0FF91EF9180912803882B09F00895D7
:102748000C949621809128038A95808179F08C3C9D
:1027580061F0863D59F08B3C11F00C94962131962E
:10276800E0933403F0933503B1CF89ECEAEDF2E05E
:10277800885C5ED03F01FF91EF91C895802DEF01F5
:10278800F301C895801508F00895CF93DF935FD2C1
:10279800E0913403F09135033196E0933403F093DC
:1027A800350355D2EF93FF9383DFFF91EF91EF93BA
:1027B800FF93C895802D0E94AA23DE01817049F4F9
:1027C800E0930B03F0930C03A6E0B0E0EA0FFB1FC5
:1027D800DF01EAE6F3E13F01FF91EF916F927F920B
:1027E8003196C895802D3196C895F02DE82FEF9336
:1027F800FF933F01FE01E301ED0108953196E09357
:102808003403F0933503885DA82F809128038A95B7
:1028180011F40C949621EAE0F3E00BD0EF93FF93C8
:102828000E94402443DF0E944224FF91EF91BFCFD2
:10283800A82FB0E0EA0FFB1FEA0FFB1FEA0FFB1FF0
:1028480008958F67D82F84E80E94652408F40895B6
:102858000E94F21BCF93DF930E943C239F919FBF5E
:102868008F918F939FB79F938A2712F40C947D21A1
:102878000E94751B10F40C947721C0813196D08189
:10288800CF93DF930E944024CFEFDFEF0E94E22333
:1028980044E040830E94CD22FCD50E94CD2211F154
:1028A800EF93FF930E94C323CDEFDFEF0E94E22353
:1028B800DF91CF91CF93DF93D0833197C083319746
:1028C80043E04083F3DEDF91CF910E94D5230E943D
:1028D80057248C3251F40E94CD220E94642408F4BB
:1028E8003EC0DACF80E0F3D0F2CF893211F00C94F9
:1028F80096210E94CD2289E20E94652480F1CDEFC5
:10290800DFEF0E94E223DF91CF91D0833197C0831C
:1029180031979F919FBF8F918083E3EFFCEF8AD11E
:102928000E942B160E94E223A9E0B3E0C395C39549
:10293800DC2F8C91808311973197C395D1F7D08381
:10294800319745E040836AE073E06DBF7EBF84ED58
:102958000E94652411F00C9448060C947E0C0E9489
:10296800CD22ADE4B1E40C9498218827A0E0B0E032
:10297800AF93BF93882B8F939FB79F939F919FBFD0
:102988008F918F939FB79F930E94C61BD8F49F91F6
:102998009FBF8F918F939FB79F9311F00C949621AF
:1029A8000E945124863809F445C08A3809F454C075
:1029B800883809F470C08FEF44DF28F56AD511F024
:1029C8000C947D218D2F8C2BF1F0E0910B03F0916D
:1029D8000C03BF2FAE2F0E94FB1B0E942224E09302
:1029E8000B03F0930C03CF93DF93E091B401F091C4
:1029F800B50180818C931197319621978D2F8C2B5F
:102A0800C1F7DF91CF919F919FBF8F91FF91EF9178
:102A1800EC0FFD1FEF93FF9351F48F939FB79F9394
:102A28008BEC0E94652408F0A9CFFF91EF91FF91EC
:102A3800EF9108950E943F240E940C1CCF93DF93CE
:102A4800CFEFDFEF0E94E223DF91CF91C0830E9496
:102A58004224C1E0D0E0D7CF0E943F2427DE0E9465
:102A680042240E94D123E0910B03F0910C030E94B1
:102A7800E11C8091C501833239F480813196BA9581
:102A88008032D9F33197B395CB2FD0E0E093B401DE
:102A9800F093B50197CF0E943F240E940C1C8D2F04
:102AA8008C2B11F00C947A210E944224C6E1D0E0CC
:102AB800E9E1F3E080E24081841711F0C8E0D0E05A
:102AC800E1E1F3E0E093B401F093B5017BCFEF933C
:102AD800FF938F939FB79F93AF93BF93E091B801F4
:102AE800F091B901EF93FF9341DF0E942B16E0911B
:102AF8000B03F0910C03EC0FFD1FE0930B03F09315
:102B08000C03E1E0F0E096D00E942C22FF91EF91B7
:102B180010F00E942B16FF91EF919F919FBF8F910C
:102B280010F00E94AB22BF91AF91E0910B03F0919E
:102B38000C038D2F8C2B09F4089580818C93319789
:102B4800119621978D2F8C2BC1F7089519D030F04D
:102B5800FB2FEA2FBDC014D0D9F3D0F3DB2FCA2F37
:102B68000C9496230DD0D1F3F3CF0AD0B9F7F0CF58
:102B780007D0A1F398F3ECCF03D081F378F7E8CF2F
:102B88009FB7319721979FBF88814081841709F0AB
:102B980008959FB7319621969FBF882B11F40E9404
:102BA8002B1688814081841B09F00895AF93BF9349
:102BB800ABEFBFEFEA0FFB1F0E942B16EA0FFB1FBC
:102BC8000E942B16A39589914191841B11F4A3951A
:102BD800D1F7BF91AF9108958881882B09F40895A2
:102BE8008081882B09F4B4CFDB2FCA2F0C9496234D
:102BF8008081882BC9F78881882B09F40895F4CF40
:102C08008881882B89F3A4CF682F782F9FB791707C
:102C180088941DF06F706A3010F066E0860F992373
:102C280019F4672F6A3920F060E6860F089401C00E
:102C3800889408956DB77EB7E60FF71F08956081F1
:102C480063956083089560816A95608308953F0164
:102C5800FE01E3010895AF93BF9393D2A0E02197BB
:102C6800F6DF8091A20140818427B82F8081EFDFB1
:102C780021978A278093A201E4EAF1E08081882BDA
:102C880088949FB731969FBF808109F0829540EB69
:102C9800840F8B2F879508F43EC0881F20D040F4FE
:102CA800A5E0B4E0C3D2E3EAF1E0C9DF09F4EFC27A
:102CB800BF91AF91E3EAF1E0C6E080818C939FB7C2
:102CC800319711979FBFCA95C1F70895FF91EF916A
:102CD800A6E0882780833197AA95E1F70895E1EA6D
:102CE800F1E0B4E088814081841F8EDF80839FB744
:102CF800319721979FBFBA95A9F708F008959FDFEC
:102D08000895AF93BF933DD28091A20141E08427FB
:102D18008093A201A4CF881F41E09FB794279FBF4B
:102D2800E1EAF1E0A9E9B4E08A2F40E0841F40819C
:102D3800841B8DDF4081840F67DF89DF80839FB725
:102D4800319721979FBFBA9579F7C8F0E2EAF1E089
:102D5800808141E0842780833197AAE9B4E08A2FF3
:102D68004081840B40E0840F4FDF80839FB7319709
:102D78009FBFBA9541E09FB794279FBF81F7EEE9BF
:102D8800F1E0A4E0B0E008C09FB731969FBFB395CB
:102D9800B395AA9509F49ACF8081882BA9F380313D
:102DA80008F4B395E3EAF1E080818B1B09F48ECF38
:102DB80008F48CCF80838B2F880F880FB82F52D2BE
:102DC80077CFAF93BF938081882B09F47FCF888119
:102DD800882B09F47BCF4081840F08F456C20AF08F
:102DE80075CF80588093A3012197319788814081BE
:102DF800842731972197EF93FF93E2EAF1E08083EC
:102E080031978827A4E0B6E080833197BA95E1F737
:102E1800E8E7F1E08881808331972197AA95D1F777
:102E2800A0833197BAEFC5E0D0E0AC2FEC0FFD1FBF
:102E38000EDFEC0FFD1FB3950AF02AC08881881FAA
:102E4800E3DE80839FB7219731979FBFAA95B1F79B
:102E5800B39549F79FB731969FBFC8E8D1E0A5E081
:102E6800B5E081918993AA95E1F7EDE7F1E09FB785
:102E780021979FBF88814081841FC6DE88839FB7C2
:102E8800219731979FBFBA95A9F7B9EFE0DECBCF6D
:102E9800DEDE9FB731969FBF45E0408303C0A5E0C3
:102EA800B8E0C4D1BF91AF91ECE9F1E0CCDEF1F02C
:102EB8008C919FB71197AF93BF9331979FBFC7DE90
:102EC8000CC0A82F88940BDF88814081840F9CDE7A
:102ED80080838A2F9FB721979FBF880F90F3F9F2BD
:102EE800EBEFFFEFEC0FFD1FB2DEF7CF80919E01F5
:102EF800807F29F08D2F807FE1EAF1E00AC0A5E00C
:102F0800B4E0E3EAF1E09FDE09F4E0CEACD18D2F26
:102F180082958035D0F083958F70A4E04081841F1E
:102F280073DE808380E09FB731979FBFAA95B1F782
:102F380008F0BECE9FB731969FBF40E14083E3EAD9
:102F4800F1E07DDE09F0B4CEA2C18F704081840F1C
:102F58008083AECEAF93BF938081882B11F40C94FD
:102F680093218881882B09F4B1CE4081841B18F005
:102F78000AF48DC102C00AF0A9CE41E8840F8093FB
:102F8800790165DECF93DF932FD1DF91CF915FDE9B
:102F98008091A2019FB731979FBF4081842780937A
:102FA8007A0155DE9FB721979FBFA4E7B1E0E8E01B
:102FB800AF93BF93EF93FF93A0E00894E1EAF1E0A9
:102FC800B4E089E940E0841F42DE4081841B3FDE93
:102FD8004081840F19DE80839FB7319721979FBF67
:102FE800BA9579F7808141E09FB794279FBF8040C9
:102FF80080838795E4E0F0E0EC0FFD1F28DEA395C1
:10300800881FD8F688946BDEE4E0F0E0EC0FFD1F33
:103018001EDEAF93BF93A5E0B4E025D1BF91AF9179
:10302800AA95FF91EF91FA2FBF91AF918E2F41F49E
:10303800883031F4E9E7F1E006DE09F0B8CF46CE92
:1030480087958F2F40F48C9182958F0F8C939FB723
:1030580011969FBF01C08C93EA9509F0A9CFE9E7C3
:10306800F1E0BF91AF9128CECF93DF93CF93DF9359
:103078008881882B39F4E3E7F1E00E94A223DF91ED
:10308800CF910BC0219788812196882B21F0E9EBFD
:10309800F3E00E949823DF91CF91BD2FAC2F8C9144
:1030A800D82FC6E0E3EAF1E08C918083119731973D
:1030B800CA95D1F7C0838D2F8038E0F4B8E08857DF
:1030C80020F0809549E0840FB82F8B2F880F880F48
:1030D800B82FABD0BF91AF91AF93BF93C6E0D0E00C
:1030E800E3EAF1E080818C93D08311973197CA95F8
:1030F800C9F7D083DF91CF91CF93DF93A1E0B8E0F8
:10310800E0E2F4E0C895802DAA9519F482953197EC
:10311800A2E08F703196EF93FF93AF93BF93A82FE0
:10312800AA9552F0CF93DF939FB7219721979FBF1E
:10313800D6DDDF91CF91F4CFBF91AF91BA9549F029
:10314800AF93BF93B4E08ED0BF91AF91FF91EF9151
:10315800D9CFFF91EF91C1E5D3E0C1DDE3EAF1E01A
:1031680040E84083319740E04083BF91AF91E2EC63
:10317800F8E1EF93FF93AF93BF9301CEA3E7B1E0DC
:1031880099CD88814081841BA0E020F4A3955FDD60
:1031980080958395B82F88818093A3018B2F8830E1
:1031A80008F088E0880F881FB82F84708093A401E6
:1031B800AF93BF93CF93DF9317D080E38B1B8033FC
:1031C80069F0887F8695879587958C0FC82F8D2FF6
:1031D80040E0841FD82F88818093A50126D0DF91F5
:1031E800CF91BF91AF910895C2EAD1E0A5E09FB712
:1031F80031979FBF808188839FB7319721979FBF61
:10320800AA95C1F7882788839FB721979FBF88838E
:103218008093A5010895B82F8827D08180838D2FAA
:103228009FB731969FBFAA95C1F7A5E0EDE9F1E0F8
:103238008B2F885080F7BA950AF408958894808176
:10324800879580839FB731969FBFAA95C1F7EDCF29
:10325800B82F8827D08180838D2F9FB731979FBF44
:10326800AA95C1F7A5E0E1EAF1E08B2F885080F735
:10327800BA950AF4089588948081881F80839FB73F
:1032880031979FBFAA95C1F7EDCF0AF0AACDA0E567
:10329800B6E40C949821CA9FF001DA9FF00DBD9F07
:1032A800F00D08952224DB9FB001CA9FF001DA9F38
:1032B800F00D611D721DBC9FF00D611D721DEB01AB
:1032C80008958881882B09F408952197888141E021
:1032D800842788830895219788278883089588817B
:1032E800882B09F4089521978881882B2196EFEB84
:1032F800F3E011F40C949823E5ECF3E00C94982394
:103308000E943F2485D2CF93DF930E94642409F45E
:103318007FD2E5E9F9E13F01FF91EF916F927F924A
:10332800099468D20E944224F8C90E943F24B1D06F
:1033380011F00C947D218BDCF4CF0E943F24E091A6
:103348000B03F0910C03EF93FF930FDBDF91CF9109
:103358007EDCE0930B03F0930C038D2F8C2B11F480
:103368000C947A21E081F0E0DCCF88818158B4EFB9
:1033780062F0875008F00895B82F21972197888127
:10338800807F8883B39509F4089588278883B39547
:10339800A9F708953FD28BED0E94CC0F0E94EB0154
:1033A800E82FF0E027C236D28D2F8C2B11F00C9429
:1033B8007A21E091BA01F091BB0149DCE0910B035D
:1033C800F0910C0314D216C225D241DCE081E9CF7A
:1033D80021D28D2F8C2B11F00C947A218091E90148
:1033E800E82FDFCF0E943F24E9E1F0E0E093B80145
:1033F800F093B901EBEEF1E08827089468DB8DE0E3
:103408008C93EBEAF1E0CBEED1E088818032219613
:10341800E1F32197A9D4AEE4B9E410F40C9498210F
:10342800EBEAF1E00E94C3237DCFF4D10E94B211F0
:10343800E0E009F0B6CF80913201E82FB2CF888161
:10344800882B11F00C947A210E94D123E091360345
:10345800F0913703EF93FF930E94F2230E946424B4
:1034680038F4AFE9BFE90E944123E3E0F0E038F027
:1034780082E20E946524E1E0F0E008F031960E94C3
:10348800F223B8D1FF91EF91E0933603F09337031D
:1034980008950E94202308F445C70E94332308F0AA
:1034A8005DC08081883C41F01CD108F051C0C6E065
:1034B800D0E00E940D244CC03196E0933403F09381
:1034C800350380E28A2BA82F0CD1EF93FF9310F4D9
:1034D8000E94B122FF91EF91C0E0D0E0CF93DF933B
:1034E80031963196EF93FF9393D109F4FFC6219754
:1034F800FF91EF910E94292208F0F8C63F01FF9141
:10350800EF916F927F92EC0FFD1F0E942B16FF9197
:10351800EF9131963196A0813196B081EF93FF9368
:103528008B2F8A2B69F0B7DE3F01FF91EF916F92E5
:103538007F923197EF93FF93BCE20E944324D4CF4C
:103548000E944224FF91EF913196A6E00E947A24CE
:103558008160C5E0D0E0EC0FFD1F0895C2D0EF9365
:10356800FF93CAE0D0E010F40E94A222FF91EF91ED
:103578000E94AE220E942B16E093B801F093B90185
:103588000E942B16EF93FF930E94AE22E093B401A2
:10359800F093B5010E942B16E093B601F093B701A2
:1035A80088EC0E94652441E09FB794279FBF08F0EC
:1035B80089C0E091B801F091B901EF93FF93E091D0
:1035C800B601F091B701EF93FF93E091B401F09148
:1035D800B501EF93FF931CD1FF91EF91E093B401F4
:1035E800F093B501FF91EF91E093B601F093B70125
:1035F800FF91EF91E093B801F093B90109F476C611
:10360800E091B601F091B7010E94262208F46EC637
:10361800E091B401F091B5013197EC0FFD1FE093F3
:10362800B401F093B501CF93DF930E946424A8F10D
:10363800E091B801F091B901EF93FF93E091B601E1
:10364800F091B701EF93FF93E091B401F091B501C8
:10365800EF93FF93DDD0FF91EF91E093B401F093E6
:10366800B501FF91EF91E093B601F093B701FF9197
:10367800EF91E093B801F093B90109F437C6E091EE
:10368800B601F091B7010E94262208F42FC60E94C5
:103698002B16E093B601F093B7010E944224DF9104
:1036A800CF91E091B601F091B701A1D00AF41EC6FE
:1036B8003196E093B601F093B701E093B801F09327
:1036C800B9010894BF91AF91E091B601F091B701AB
:1036D8000E942B16E091B401F091B50181E08A9522
:1036E80008958B2F8154880FE0914A03F0914B0382
:1036F80031968E0FE82F08F4F395C0813196D0816A
:103708008D2F31970E942B168E2B39F080813196A0
:103718008A1799F7319631960895CF93DF93E3E0AE
:10372800F0E00E940B24E093BE01F093BF010E94D9
:103738002B16FF91EF91E093BC01F093BD010E941D
:10374800AB220E942B16A08331963196319681E0E8
:103758008093290308940895E0913403F091350388
:103768000E942B16EBEAF1E0FFD208F408952197A6
:103778000E942B16E0933403F0933503EBEAF1E053
:103788000C94C323823219F0882B29F482E20E9418
:10379800652408F40895E0913403F0913503E0932B
:1037A800B401F093B501C0E0D0E0B82F8081319624
:1037B8008B1729F08D302196C9F70C949621E09348
:1037C8003403F0933503E091B401F091B501089505
:1037D80080912A038D3011F00C94BE0F80912B0339
:1037E800882B09F40895A9E4B4E40C949821EC1BFF
:1037F800FD0B0895CBEED1E074D08DE08883CBEE3D
:10380800D1E0EBEAF1E0B0D2EBEAF1E00C94C323AB
:103818000E945A130E94AA23EF93FF93A6DD0E94E9
:10382800D123FF91EF918081A0813197B081CBEFB7
:10383800DFEFEC0FFD1FC0E0D0E0882B09F40895FE
:103848008B2F882B09F052C5AA95319680818295D5
:10385800EF93FF937ED0FF91EF9108F447C5AA95A7
:1038680052F48081EF93FF9374D0FF91EF9108F4A5
:103878003DC5AA9552F38D2F8C2B0895E091340302
:10388800F0913503E093D501F093D6011CD341E0C4
:103898009FB794279FBF08F40895C0E0D0E059D09F
:1038A80008F424C50CD3D8F3E091D501F091D601E2
:1038B8003197E0933403F09335030E942B16089553
:1038C80086E90E94652408F40895C0813196D08164
:1038D8003196E0933403F09335030E942B168894B5
:1038E80008958827A0EFB8ED0ED0A8E1BCEF0BD063
:1038F800ACE9BFEF08D0A6EFBFEF05D0AFEFBFEF41
:103908008B2F01D00895CF93DF93DFEFD395EA0F84
:10391800FB1FE0F38F939FB79F938B2F8095B82F52
:103928008A2F8095A82F1196EA0FFB1F9F919FBFA2
:103938008F91BD2FDF91CF918B2B09F40895805281
:103948008B2B11F480E202C080E38B0F88832196D1
:103958000895FD2FEC2FEE0FFF1F08F40895EE0FCA
:10396800FF1F08F40895EC0FFD1F08F40895EE0FEB
:10397800FF1F08F408950E942B168F708C0FC82F14
:103988008D2F40E0841FD82F0895EF93FF93EF9376
:10399800FF93CBEAD1E0CF93DF93CF93DF930E94DD
:1039A800A223DF91CF91E1DCFF91EF91DF91CF91DD
:1039B8000E94C415FF91EF910895EF93FF9384E05F
:1039C8008093DB0188278093CC018091C5018934DD
:1039D80009F478C1833209F450C1853409F480C1EF
:1039E8008091C60133D0FF91EF918091C4018F93EC
:1039F8009FB79F93807231F031978081882B8BE23B
:103A080009F4F1D09F919FBF8F91879584E208F4C4
:103A1800EAD0E091D101F091D2018091C5018332C1
:103A280059F4319680818032E1F38B3229F08D325E
:103A380019F0843209F03197B0E0DF2FCE2F88815A
:103A4800823209F40895B3952196F9CFE093DC0109
:103A5800F093DD01B82FE6E0F2E042E24083809186
:103A6800C701882B31F0319740E34083BA958A9596
:103A7800F9CF3197BA954EE24083E093D701F0939E
:103A8800D801E093D901F093DA01E093D301F093E0
:103A9800D4018B1729F0BA95319740E24083F9CFCA
:103AA800E093D101F093D201319741E24083E09154
:103AB800DC01F091DD018081882B09F438C0815840
:103AC80008F475C08395B82FA82F885040F029F0C6
:103AD800A82F80E376D0AA95E1F7B8E0AB2FA3959D
:103AE800A9D06FD0BA95E1F7BA2FA4D08CD0B395EE
:103AF800FCCF319780818E32E1F38C32D1F3823260
:103B080038F0839580838A3391F440E34083F1CF82
:103B18008091CC01882B49F0319641E3408341E004
:103B2800840F08F4ECC3888302C081E34AD0E5E03F
:103B3800F2E08091C501833221F08091C401882B85
:103B48007AF48081803321F440E240833197F9CFC1
:103B58008091C501833221F4319642E24083319746
:103B68008091C501833221F4E093D901F093DA0101
:103B780080818E3269F431978081803239F08132C8
:103B880039F43196319640E3408302C080E319D07E
:103B9800E091DC01F091DD0131978081882B8DE285
:103BA80009F021D0E091D101F091D20108958095DA
:103BB800882BB82FA1E009F497CF80E324D0BA95D9
:103BC800FACF8F939FB79F938091C401807441F07F
:103BD800EBEDF1E038D821F443E040838CE203D0E8
:103BE8009F919FBF8F91E091D301F091D4013197BC
:103BF800D82F8081813209F482C3E093D301F093F6
:103C0800D401D0830895E091D901F091DA01319679
:103C1800D82F8081823231F0E093D901F093DA0114
:103C2800D08308959F919FBF8F918D2F853308F47E
:103C38007ECF5FCF88E0D82F8B1780E308F40895F4
:103C48008B2F8A958D1B8795C82FDFEF8F939FB792
:103C58009F93E091DC01F091DD012197EC0FFD1FAE
:103C68009F919FBF8F91808120F087958795879539
:103C780087958F7040E3840F0895EF93FF93E9E1F0
:103C8800F8E0E093C601F093C701FF91EF918081BE
:103C9800882BD9F0893820F5EF93FF933197B82F07
:103CA800B395319780818F7021F4B3958081882BEB
:103CB800B9F3FF91EF918B2F813890F066DE09F010
:103CC8008FCE03C062DE09F01AC388278093C7012C
:103CD8008091C6018395BADE82E28093050283CE85
:103CE80080818093A30141E840838091C60185507B
:103CF800ADDEE091D901F091DA0180818E3209F0D0
:103D0800319645E4408331968091A301BBE2882B2C
:103D180029F081581AF4BDE280958395B0833196D5
:103D2800EF93FF93C82FD0E0E091D701F091D8012D
:103D3800319731978081813371F43197808140E2E6
:103D48004083319680833196E093D301F093D40178
:103D580041E3408321960E942B16DF91CF9180E2A8
:103D6800C7DD82E288833FCE88278093CE01809387
:103D7800CD0180E88093A30187EF8093D0018881EB
:103D88008B3249F08B3C39F08C3C11F08D3221F4A8
:103D980081E08093CE012196E093D101F093D20186
:103DA80084E03197319740E040838A95D9F7E093D2
:103DB800D301F093D4010E942B16E093D501F09320
:103DC800D60181D0B8F08E3211F47DD040F008943D
:103DD8000895E3EAF1E00E942716C9F370D0C9F309
:103DE80008F43AC0853409F43BC088278093CE0193
:103DF8001DC065D0F1F318F08E3281F3F6CF78D07C
:103E0800E3EAF1E0808141E0840F808300F357D03A
:103E1800B0F38E32F9F0853419F18827E3EAF1E03E
:103E28004081840F08F4D3CF09F4D1CFE091D101B8
:103E3800F091D201889480838091CE01319780835C
:103E4800E091D501F091D6010E942B168091CF0107
:103E5800B82F089534D010F44BD0FCCF8534E9F650
:103E68002ED070F08B3249F08B3C39F08D3219F03E
:103E78008C3C09F0ACCF8093CD0121D008F0A7CFBE
:103E8800C82FD0E01CD020F464DD08F4A0CFFACF0E
:103E9800E1E8FFEFEC0FFD1F08F499CF8091CD0109
:103EA800882B8C2F09F4BACF80958395E3EAF1E04B
:103EB8004081840F08F08BCF09F489CFB7CFE09108
:103EC800D501F091D60180818093CF013196E0939E
:103ED800D501F093D6018A3308F00895803341E084
:103EE8009FB794279FBF08F008958F70089408958E
:103EF800B82FE0EDF1E00E9423168081E091D30114
:103F0800F091D40189F00AF00895869520F08B2F5E
:103F180082958083089580818B2B80833196E093EE
:103F2800D301F093D40108958B2F853008F40895B8
:103F38003197A4E081E04081840F0E9408168083B5
:103F480018F43197AA95B1F708F00895319640E131
:103F58004083E3EAF1E0808141E0840F808308F444
:103F680036CF08957894A89550912601409125015F
:103F7800541749F0E5E0F1E0E50FFE1D8081539507
:103F88005F7150932601089580913203882B51F078
:103F98008827809332038B2F863251F080EC8B0F69
:103FA800B82F06C08B2F863219F4809332030895F8
:103FB8000E94FF298B2F8D5039F08B2F803208F407
:103FC80008958091E90183958093E901089580918E
:103FD800E901882B09F40895BDE0EADFBAE0E8CFEB
:103FE8000E94B61F09F408958F77803009F008956C
:103FF800AF93BF93CF93DF93EF93FF9380912B03FE
:10400800882B09F40C949A0DBCE5D2DFE5DF0C94FB
:104018001F040E94B61F09F408958F77803219F49F
:104028000E94B61FE9F38133F8F28A33E8F6805329
:10403800B82F88270894881FBA95E1F787950C94BC
:10404800450980913103882B39F0B82F8827A82F8C
:10405800809331038B2F089518D0A8E0E6ECF3E0A5
:10406800C895402D31968417089409F4089531961F
:104078003196AA95A9F7803208F0089540E4840F94
:104088008093310386E2B82F0895EF93FF93E9E018
:10409800F3E00E94B61FC1F480912B03882BC9F767
:1040A80031978F2F8E2BA9F7E091E401F091E5016C
:1040B8008F2F8E2B61F33197E093E401F093E501A4
:1040C8008F2F8E2B31F0E3CF8FDFB82FFF91EF9139
:1040D80008958DE0B82FFF91EF9108950E942B1657
:1040E8000E942B164DE04083A395B82F8091C00104
:1040F8008A0F8093E90180912B03882B8B2F09F07D
:104108000895E0E0F0E0E093E401F093E501E09346
:10411800E501F093E60108955FDF8091E90180935E
:10412800C001ACD0EDE2F2E0DF2FCE2F8827A82F18
:1041380080912B03882B39F48091E601882B19F0A4
:104148008A1709F4CDCFEF93FF93AF93BF93CF9323
:10415800DF9377DFDF91CF91BF91AF91B82F90F0C8
:10416800FF91EF9180913303882B09F044C06AD105
:1041780029F48A2F8634E0F62196A395B08318DFB8
:104188003196D6CF78D13F01FF91EF916F927F9210
:10419800089558D151F488278A1709F4C3CF319765
:1041A8002197AA95BFE504DFC3CFAA9509F4BACF32
:1041B800EF93FF933196808131978083319642D176
:1041C800C9F721972EC0CF93DF93CDE2D2E03AD141
:1041D800DF91CF9109F4ACCF319780E88B2BB82FC2
:1041E800E7DEA6CF2FD108F0A3CF3196F6CF8827E8
:1041F800809333039DCF8A2F863408F099CFA395F7
:1042080031962196AF93BF93B3E1D2DEBF91AF91C0
:10421800EF93FF9331978081B083B82F13D13196F4
:10422800D0F3E091E001F091E1018081882B19F54C
:10423800CF93DF93AF93BF93CDE2D2E0E091DE015D
:10424800F091DF018A2F803408F0AFE30E942B162B
:10425800B0810E942B16808180788B2B80833196C9
:104268002196AA9599F78081807880628083BF9192
:10427800AF91DF91CF91FF91EF915ACF882780932B
:104288003303BBE109D0B4E007D0FB2FEA2FE0935A
:10429800DE01F093DF01089588270C94FF29A9E433
:1042A800BEE442C0A4E4B5E53FC0A3E4B1E43CC029
:1042B800A0E5BFE439C0ACE4B3E436C0A1E4B3E49C
:1042C80033C0A4E5B7E530C0A4E4B2E52DC0A0E54D
:1042D800BEE42AC0ACE4BCE427C0A1E4B2E424C034
:1042E800ADE4B4E421C0A4E4B6E41EC0A2E4BFE493
:1042F8001BC0A9E5B4E518C0ADE4B6E415C0AFE449
:10430800B6E412C0AEE4BCE40FC0E0914A03F091F9
:104318004B033197E0933403F093350305C0AAE5C6
:10432800B4E402C0A3E5B2E480912903882779F0B8
:10433800E091BE01F091BF01E093BA01F093BB0197
:10434800E091BC01F091BD01C0E0D0E000D1FA2FAE
:10435800EB2FE0931103F0931203E1E1F3E0E09314
:104368000902F0930A02E9E1F3E04DE0408380910D
:104378002B03882B09F054C040E24083E0914803A6
:10438800F0914903BF2FAE2FC081D0E0EC0FFD1F85
:104398000E942B16E4E3F3E058D00E942B1690F30A
:1043A8009FB711968C91E82F11968C91F82F9FBF8B
:1043B800C2E2D3E0E0930F03F093100380E20E947F
:1043C800761C80912B03882B61F5E0912B01F091ED
:1043D8002C018F2F8E2B09F10E942B16EAE0F3E0B7
:1043E800EDBFFEBFE0930D03F0930E03E0914C0385
:1043F800F0914D0340E040833197E0930B03F09335
:104408000C03E0E0F0E0E0932B01F0932C010E9414
:104418002B16EF93FF930C94F00B882780932C03B3
:10442800D6DDE0910902F0910A0206D30C941F042C
:10443800B0E0808188833196219611978B2F8A2B43
:10444800C1F70895EC17FD0708959FB731969FBFF0
:104458009FB77081319760819FBFC617D7070895AE
:104468008F939FB79F9380813196F081E82F9F911A
:104478009FBF8F9108958F939FB79F93C895602C86
:104488003196C895F02DE62D9F919FBF8F91089585
:1044980040E0408331962197D9F70895E09134039D
:1044A800F0913503EF93FF938081843829F4319696
:1044B800E0933403F093350313D118F01CD108F0BE
:1044C8008081FF91EF91E0933403F09335038232BA
:1044D80009F40895843209F40895863809F4089592
:1044E8008A3809F4089588380895E091C401F09154
:1044F800C501E093C801F093C901E091C601F091AC
:10450800C701E093CA01F093CB010895E091C80177
:10451800F091C901E093C401F093C501E091CA018B
:10452800F091CB01E093C601F093C7010895E0E054
:10453800F3E2E093C401F093C5010895E4E0F0E0EC
:10454800EC0FFD1FCF93DF9362D1DF91CF91C19321
:10455800D1930895C191D1910895E4E0F0E057D145
:10456800EF93FF9331963196CAE0D0E0F0DFFF91E8
:10457800EF91EF93FF93A6E0B0E00E944F190E94DD
:104588002B16FF91EF91E3DF0E942B16319631969F
:104598003EC1E093A601F093A701FF91EF91E0934C
:1045A800A801F093A901E0913403F09135033F018C
:1045B800FF91EF916F927F92E0933403F09335036C
:1045C800E091A801F091A901EF93FF93E091A60172
:1045D800F091A7010895E0913403F091350381919A
:1045E800E0933403F0933503873909F408958D3047
:1045F80049F0EAE2F3E04081842709F093CE0E9473
:10460800320DE9CF8DE080932A03808108948A9542
:1046180009F408959FB733969FBFE0933403F0934E
:1046280035038894089558D008F4089508D00E9456
:10463800511A09F008955DCE4FD008F40895B82FA7
:10464800AFE05DD041E09FB794279FBF08F0089581
:104658008F70A82F88940895EFDF08F463CE84E262
:1046680030D108F408958A2F8068A82F88270895E4
:10467800F3DF8A2F8064A82F0895AF93BF930E9419
:10468800180DA9DF8191BF91AF91E0933403F093A6
:10469800350308F408958B1709F408958A1769F704
:1046A8000895E0913403F09135038081843D09F445
:1046B80008958D3031F03196E0933403F09335034B
:1046C800F4CFA8EAB9EAD9DFA4E4B6E408F41DCE29
:1046D800893A09F408CE0895E0913403F09135033E
:1046E8008081813408F408958B3541E09FB7942781
:1046F8009FBF80F40895E0913403F09135038081E1
:10470800803308F408958A3341E09FB794279FBF08
:1047180008F408959FB731969FBFE0933403F09350
:1047280035030895EFEBF3E056E09FB7C89508828C
:10473800319721975A95D1F79FBF0895A6E08081B8
:10474800888331972197AA95D1F70895E0910B03B3
:10475800F0910C03A6E0B0E0EA0FFB1FDF2FCE2F8D
:104768000895EF93FF93CAEFDFEF28D0DF91CF9141
:104778000E942B168827839580932803D5CFEF9323
:10478800FF93CAEFDFEF1AD0DF91CF910E942B166B
:104798008827839580932803D1CFEBEAF1E00E9424
:1047A8002B16E0910B03F0910C03A6E0B0E0EA0FA2
:1047B800FB1FE0930B03F0930C03C0CFE0910B03B6
:1047C800F0910C03EF93FF93EC0FFD1F37D0E093AC
:1047D8000B03F0930C03FF91EF910895EF93FF9370
:1047E800E0913403F0913503EF93FF93E0913603A2
:1047F800F0913703E0933403F0933503FF91EF9181
:10480800E0933603F0933703FF91EF9108950E94E8
:104818002B16E091BA01F091BB01EF93FF93EC0FD7
:10482800FD1F0CD0E093BA01F093BB01FF91EF910B
:10483800EF93FF932DDEFF91EF910895CF93DF93D0
:104848000E942B16EBEBF1E003DE48F0ECE0F3E01E
:10485800FFDD0E942B16DF91CF9108F40895AFE495
:10486800B3E5E0914C03F0914D033197E0930B03CE
:10487800F0930C0359CD17D0B8EC01C0B9E2E09120
:104888003403F091350380813196E0933403F0933B
:1048980035038B1709F4089545CDE0913403F09161
:1048A800350380810895E0913403F09135038081C8
:1048B8009FB731969FBFE0933403F0933503089573
:1048C8008CE2E0913403F091350340818417089419
:1048D80009F008959FB731969FBFE0933403F09392
:1048E800350341E09FB794279FBF0895EC0FFD1F44
:1048F800AA95E1F70895E0914203F0914303E0930C
:104908004603F0934703B0E0E0914803F091490370
:10491800A0818A2F8130089409F408959FB73196B1
:104928009FBF93DD9FB731979FBF09F4089541E07A
:104938009FB794279FBF08F00895EF93FF93CF93F5
:10494800DF93E0914403F09145030E942B16E09118
:104958004603F0914703EC0FFD1F08F4C7CCE09322
:104968004603F0934703DF91CF91FF91EF91EA0F50
:10497800FB1FCECFC0DF08F4C5CC09F0C3CC089527
:10498800E0914803F0914903E0933A03F0933B0325
:10499800E0914A03F0914B03E0933C03F0933D030D
:1049A8007CDF8D3009F408958C3219F10E94421C85
:1049B80008F4A8CC0E942B169EDF08F4A3CCE09341
:1049C8003A03F0933B0380810E940007E0933C0385
:1049D800F0933D0362DF8D3009F408958C3209F0BD
:1049E800A1CCE0914A03F0914B03E0933C03F09390
:1049F8003D0359DF80818D3009F408950E94421CDF
:104A080008F480CC0E942B1676DF08F47BCC8081DA
:104A18000E940007E0933C03F0933D030E942B168D
:104A2800E0913A03F0913B030DDD08F07BCC35DFD4
:104A38008D3009F077CC0895ADE001C0A2E2808105
:104A4800B82F8A1709F408958D3009F46BCCB0DAC1
:104A58003196F5CFA2E2C895802DB82F8A1709F4B0
:104A680008958D3009F45ECCA3DA3196F4CFE09145
:104A78004003F0914103EF93FF93E0913E03F091DF
:104A88003F038B2F8A2BC1F08D2F8C2BE1F03F0138
:104A9800FF91EF916F927F92808131973F01FF9153
:104AA800EF916F927F9240818417319721971197E8
:104AB80041F3FF91EF910895FF91EF918D2F8C2B8A
:104AC80009F408950895FF91EF9188278395089434
:104AD8000895CF93DF93C7E5D3E026DEE7E5F3E05B
:104AE800DF91CF9108958881882B39F4319780819F
:104AF800882B09F0A0C30C94AC158081882B11F485
:104B08000C94B215E093AE01F093AF010E942B16FE
:104B1800E093AC01F093AD01FB2FEA2FE093B001D5
:104B2800F093B101E091AC01F091AD010E942B1618
:104B38000BD2E091B001F091B101BF2FAE2F0E94CE
:104B48002B16E091AE01F091AF010E94E516E091BD
:104B5800B001F091B1010E942B164AD00895CF936D
:104B6800DF93BD2FAC2F0E942B16C3E1D4E0B1DF39
:104B78000E948516DF91CF91CF93DF93EFE1F4E0A8
:104B8800A8DFA4E6B3E00E94AE17882780936103EC
:104B98008091640308D3C4E6D3E0EDE0F4E099DF44
:104BA800EED2A4E6B3E0EA2FFB2FEF93FF93EBEFEF
:104BB800F3E08FDFEF01FF91EF9128F00E942B16B1
:104BC800E7E0F4E086DF0E948516E4E6F3E0DF2FF5
:104BD800CE2FADE5B3E00E94E516E9E9F4E0A3D2F3
:104BE800BF91AF91CAE6D3E0E4E6F3E00C94E51692
:104BF800CF93DF93A4E6B3E0E1E0F4E06ADF0E943C
:104C0800E516E1E6F3E0808140E0408380936C03A1
:104C180031968081833808F00C944B198158C0E094
:104C2800C0F08395A82F80915F03B82F879587954B
:104C3800879587958F70D82F8C2F880F880F8C0FAA
:104C4800880F8D0FC82F8B2FAA95A1F78091640329
:104C5800AAD28C2F41E8840F80936D03809164035E
:104C6800B0E0803830F0EFE5F3E08081B82F8F7046
:104C780080838B2F80936B03A8D2B6E0EFE5F3E037
:104C8800C8E5D3E08081888321963196BA95D1F71B
:104C9800EFEBF4E048D280916B03807FE7E5F4E026
:104CA800C6E0D0E0EC0FFD1F8051E0F7CAE6D3E084
:104CB800BF91AF91AF93BF930CDF0E94E516BF91F0
:104CC800AF91EDE6F3E080818C9331978081882B5A
:104CD80009F40895EFEBF3E0FCDEEF01FB2FEA2F78
:104CE8000C94AE17CF93DF93BD2FAC2F0E942B16D9
:104CF800E0936E03F0936F0311978C91882B09F062
:104D08009AC211968C91882B09F40C946A1687958F
:104D1800DFE710F4839501C0D39540E4840F8093B6
:104D28005803E4E6F3E0D083C5E0119731978C91FE
:104D38008083CA95D1F78D2FCBE2D4E08F3759F015
:104D48008081C7E3D4E0853230F0C3E4D4E0803515
:104D580010F0CFE4D4E0E6E0F0E0EC0FFD1FEF93B5
:104D6800FF93E4E6F3E0AAE6B3E0AF93BF93EF93D3
:104D7800FF93FE01AEDEEF01FF91EF910E94E51671
:104D8800FF91EF91DF91CF91BF91AF91AF93BF9317
:104D98000E942F1608D007D006D0BF91AF918091FE
:104DA80058038C930895E0916E03F0916F03EF938D
:104DB800FF93C4E6D3E0AAE6B3E0AF93BF930E94A3
:104DC800AE17BF91AF91FF91EF91EF93FF93AF9320
:104DD800BF93DB2FCA2F0E942F16FF91EF91BF912F
:104DE800AF91EF93FF93EDE0F4E073DEEF01FF91F5
:104DF800EF910C94E516CF93DF930E942B16C7E72B
:104E0800D3E09CDCC7E7D3E0B7DEDF91CF91CF9347
:104E1800DF93A5DEBF91AF91DB2FCA2FE7E7F3E061
:104E28000C94AE17CF93DF932197888180936C03FE
:104E380088278883E5E0F5E04CDEDF91CF91CF93BA
:104E4800DF93A0E09CD1A8F0EBE0F5E042DEDF9133
:104E5800CF91CF93DF93A39592D158F0E1E1F5E09C
:104E680038DEDF91CF91CF93DF93A39588D108F0F7
:104E7800A3958A2F80936D03EBE8F2E0C6E0D0E0BB
:104E8800EC0FFD1FAA95E2F7DF91CF91CF93DF9347
:104E9800EF93FF93AAE6B3E0AF93BF931ADE0E94A5
:104EA800E516BF91AF91DB2FCA2FEFEBF3E011DED0
:104EB8000E942F16FF91EF91DF91CF91CF93DF934F
:104EC800A4E6B3E0AF93BF930E948516BF91AF915C
:104ED800DB2FCA2FEAE6F3E00E94AE17ADE5B3E098
:104EE800E4E6F3E0DF2FCE2F0E94E516E5EEF4E0CE
:104EF8001AD1AAE6B3E0C4E6D3E0FB2FEA2F0E945A
:104F0800E51680916D03E9E2F5E0C6E0D0E0EC0F2C
:104F1800FD1F8A95E2F7CAE6D3E0BD2FAC2FD9DD95
:104F28000E942F1680916C038093A2010C945C164A
:104F3800CF93DF9309D0BF91AF91E9E1F4E0C9DDE8
:104F4800DB2FCA2F0C94AE17CF93DF938881809301
:104F58006D03882B09F46FC180E8888321978881C5
:104F6800882B09F068C1ECEFFFEFEC0FFD1F808183
:104F78008035EEECF2E040F4ACE0B0E0EFE4F5E0D0
:104F8800EA0FFB1F8051E0F7E0937003F093710381
:104F98002196A4E6B3E00E9452030E94E516EFE5CD
:104FA800F3E08081B82F8F708083E5E6F3E08B2FE4
:104FB800807F80936B0380833196B4E040E0408328
:104FC800BA953196D9F740E84083FFD0EAE6F3E096
:104FD800DF2FCE2FBF2FAE2FAF93BF930E942F1678
:104FE800BF91AF91AF93BF93DB2FCA2FE4E6F3E0F5
:104FF800EF93FF930E942F16BF91AF91FF91EF910E
:10500800DB2FCA2FAF93BF930E94AE17DF91CF91CA
:10501800ADE5B3E0FD2FEC2F0E94E516E7E4F5E0DF
:1050280082D0EAE6F3E0C4E6D3E0BF2FAE2F0E94B9
:10503800E51680916B0386958695869586958550AD
:10504800EDE9F5E0C6E0D0E0EC0FFD1F8A95E2F748
:10505800CAE6D3E0BD2FAC2FAF93BF933ADD0E94D1
:105068002F16E0917003F0917103C6E0D0E0EC0FC9
:10507800FD1FBF91AF91CA2FDB2F0E94851680912B
:105088006D03C82F880F809581708093630319F092
:1050980080E88C1B02C08C2F8058B82FB39589E903
:1050A800FFEF41E0840F0E94081608F4F395BA95C3
:1050B800C1F7E82FA3E0EE0FFF1FEE0FFF1FEE0F63
:1050C800FF1FEE0FFF1F8F2F803118F4AA9599F755
:1050D800A0E88A2F40E8840F0E942B16EFE5F3E042
:1050E800D0833196C0833196B2E040E04083319658
:1050F800BA95D9F731968083C9E1D4E0BF2FAE2F96
:10510800AF93BF93EF93FF93FE01E3DCEF01FF91B1
:10511800EF910E94E516DF91CF91EAE6F3E0BF91A7
:10512800AF910C942F1605D0DB2FCA2FD2DC0C942C
:105138002F16AAE6B3E0EF93FF93AF93BF93CDE5A5
:10514800D3E00E94E516BF91AF91FF91EF91C7E0C0
:10515800D0E0EC0FFD1FC895802D31978F3F09F4E3
:105168000895DB2FCA2FEF93FF93AF93BF93B1DC62
:105178000E942F16BF91AF91FB2FEA2FDECF8881B7
:105188004081841709F00895B4E09FB731972197BB
:105198009FBF9FB7319721979FBF88814081840B1C
:1051A800BA95B9F70895815808F40895B8E0883099
:1051B80010F48395B82FE4E6F3E080818B1B80839D
:1051C8008B2F880F880FB82F25D0EFE5F3E0A4E0E8
:1051D800B0E08081882B49F43196B395B395AA95B0
:1051E800C1F78827809364030895803108F4B39544
:1051F800E4E6F3E080818B1B80838B2F880F880F78
:10520800B82F08C0B82F8827D08180838D2F319779
:10521800AA95D1F7A5E0E2E6F3E08B2F885090F746
:10522800BA950AF40895882B8081881F8083319766
:10523800AA95D1F7EFCF089400C005D004D008F4A0
:105248000C944B190895000008950C945321089567
:105258006FE170E0A0E0B0E040EF50E0C0E0D0E0E7
:1052680080E491E002D0A895FECF6F937F934F938F
:105278005F938F939F93682F792F8A2F9D2FA60F67
:10528800B71F11976C2F7D2FC40FD51F21975D98DD
:105298000E94FC2A9F918F915F914F917F916F910E
:1052A8008F939F93272F0E94B22A262F0E94B22AFB
:1052B8000197C1F79F918F9141505E0989F75D9AD7
:1052C8000895409127014B3131F4AA2DBB2D442775
:1052D8004093270108956E2E7F2E4B2F440FE8E64A
:1052E800F0E0E40FFE1DC895402D3196C895F02DCD
:1052F800E42F0994AE1479F0CF93DF936FD0B8817F
:10530800BF77B883B4D0AA9469D0B881B068B8839D
:10531800AED0DF91CF91E62DF72D0895CF93DF938F
:10532800BF935CD0B881BF77B883A1D04FE0B416E3
:1053380024F4B3944FE0B4220AC0CA94BFE0CB224D
:105348004DD0FCE3E0E2E993FA95E9F778D046D04E
:10535800B881B068B8838BD0BF91DF91CF91E62D2B
:10536800F72D0895CF93DF93BF9338D0B881BF77D7
:10537800B8837DD058E25A19B0E230D0B88377D0DC
:10538800A3945A95C9F7AA2429D0B881B068B883DC
:105398006ED0BF91DF91CF91E62DF72D08954CE3A4
:1053A800A416ACF6CF93DF9319D0B881BF77B88332
:1053B8005ED0A3944FE3A42211D0B881B068B8831B
:1053C80056D0DF91CF91E62DF72D0895B0932701A0
:1053D800E62DF72D0895E62DF72D0895C0E8D6E0BF
:1053E800DB2CDC186FE0D62268E26D9DC00DD11D64
:1053F800CA0DDE1D0895BF77B0320CF462CFAF93AB
:10540800BF93CF93DF93EF93FF93E8DFB8832FD059
:10541800A39448E2A41634F0AA24B39440E1B41645
:105428000CF0BB24BF93B0EAD9DFB88320D0BF917A
:10543800FF91EF91DF91CF91BF91AF910895AF9216
:10544800BF928FE0B82E87E2A82EC8DF87E2A82E89
:105458000ED0219746E0C038D40710F4CFEFD8E03B
:10546800AA94B2F7BA9492F7BF90AF900895AF9309
:10547800BF93B881E2E7F7E560E070E06093000170
:105488007093010160EE77E060930201709303016D
:10549800BB2362F460E070E0609302017093030143
:1054A80060EE77E06093000170930101BF778B2F66
:1054B800BCE08B9FE00DF11DCF93DF93AA2DB8E0E0
:1054C800AB9FA02DB12DCB2DDFE0CD9FC02DD12DD1
:1054D8008A2F9B2F17966C2F7D2F2E965D980E94F2
:1054E800FC2ADF91CF9138E0209101010E94B22A75
:1054F800209100010E94B22A3A95B1F74CE0C89574
:105508003196802D38E0881F60910001709101016B
:1055180020F46091020170910301272F0E94B22AA2
:10552800262F0E94B22A881F3A9571F74A9539F7B3
:1055380042E038E02E2D0E94B22A2E2D0E94B22A77
:105548003A95C1F74A95A9F75D9ABF91AF91089529
:105558005E9805C05F9359E088940AC05E9A2EBD94
:1055680000009DB497FEFDCF08955F9359E008941D
:105578002B9808F42B9A2D98220F2D9A5A95C1F73B
:105588005F91089580E58CBD81E08DBD299A04E680
:1055980010E00E941D03299804E610E00E941D03F4
:1055A800299A06E910E00E941D035D98EAE0F7E5F4
:1055B800C8950E1409F40EC03196502DC895319631
:1055C800202DC6DF5A95C8953196202DC7DF5A95EC
:1055D800D1F7EECF21E1BCDF08E710E00E942103FC
:1055E80029E2B6DF5D9A0AE010E00E941D030895E3
:1055F8002AE2AEDF292FB2DF282FB0DF2B2FAEDF54
:105608002A2FACDF2BE2A4DF272FA8DF262FA6DF67
:105618002D2FA4DF2C2FA2DF2CE29ADF089565B18D
:10562800686265B964B1686264B9559A5D9A229AEC
:105638002A9A569A5E9A219A299A8FE388B9539A98
:10564800000000000000EE24E0E0F1E0E60DF71DA8
:105658008083E092B600E092B100F89489E18093EB
:10566800B30082E08093B00084E08093B1008FECB7
:1056780090E09093C5008093C40082E08093C000BE
:105688008091C100837288698093C1008091C200B3
:1056980086608093C20082E08093700078940895B9
:1056A80004CF008B3005ED6703128104E885107A7A
:1056B80006CB392C00340202F72003EA000002C0AE
:1056C8001B02C11003C53F3C02C7B7023608023AA5
:1056D8005503B1001B03B60AA202F200022601100C
:1056E800E00F2A28080E0854A9430A0F00000000FA
:1056F80010E10015170711062B563C05100F3F3F08
:105708000F0004EF03800204CF00C13005ED6403ED
:10571800128104E885007806CB392C00340202F7A0
:105728002003EA000002C02302C11003C53E28027C
:10573800C786023628023A5503B1001804B6088213
:105748002702F20002260110E00F312B0C0E084E42
:10575800F1370710030E090010E1000E14031107BA
:1057680031C148080F0C31360F00FE8282828282D6
:105778008282FE000000FE80808080808080800021
:1057880000001010101010101010FE00000002028F
:10579800020202020202FE00000080402010F840CF
:1057A800201008000000FE82C6AA92AAC682FE0047
:1057B80000000002040890A0C080000000003844E7
:1057C800828282FE2828EE0000002040F84422024F
:1057D80002020200000000100804FE040810000085
:1057E8000000FE000000FE000000FE0000000010A7
:1057F8001010925438100000000010105438109205
:1058080054381000000000102040FE402010000016
:1058180000003844C6AA92AAC6443800000038449A
:10582800C6829282C64438000000FE828282FE82CE
:105838008282FE000000385492929E828244380090
:105848000000384482829E92925438000000384406
:105858008282F29292543800000038549292F28276
:105868008244380000000022140894A2C08000007E
:1058780000007C44444444444444C60000000202FE
:105888000202FE02020202000000FE8244281028E2
:105898004482FE000000101010383810101010005C
:1058A80000007884848060101000100000003844E4
:1058B8008282FE82824438000000FE929292F28236
:1058C8008282FE000000FE828282F2929292FE00A4
:1058D8000000FE8282829E929292FE000000FE925A
:1058E80092929E828282FE0000000000000000006A
:1058F8000000000000001010101010000010100030
:105908000000484848000000000000000000282867
:1059180028FE28FE282828000000107E90907C127F
:1059280012FC1000000040A244081020448A040021
:1059380000007088885020528C8C72000000181863
:105948001020000000000000000008102020202087
:10595800201008000000201008080808081020007F
:1059680000000010925438549210000000000010FB
:105978001010FE10101000000000000000000000D1
:1059880000303020400000000000FE000000000051
:10599800000000000000000000303000000000029D
:1059A800040810204080000000007C82868A92A2B1
:1059B800C2827C00000010305010101010107C00C3
:1059C80000007C82020438408080FE0000007C8257
:1059D80002023C0202827C000000040C142444846D
:1059E800FE0404000000FE8080F8040202847800AF
:1059F80000003C408080FC8282827C000000FE82A5
:105A0800040810202020200000007C8282827C82F2
:105A180082827C0000007C8282827E0202047800FE
:105A280000000000003030000030300000000000AE
:105A38000030300000303020400008102040804006
:105A48002010080000000000007C007C000000001E
:105A580000002010080402040810200000003C4246
:105A680042020C101000100000003C429AAAAABC86
:105A780080403C0000003844828282FE828282009C
:105A88000000FC4242427C424242FC0000003C4290
:105A98008080808080423C000000F84442424242BC
:105AA8004244F8000000FE808080F0808080FE0084
:105AB8000000FE808080F0808080800000003C42F2
:105AC8008080809E82423C00000082828282FE8228
